:1000000012C035C01EC01DC01CC01BC01AC019C004
:1000100018C017C016C015C014C013C012C011C03C
:1000200010C00FC00EC011241FBECFEDCDBF20E009
:10003000A0E6B0E001C01D92A436B207E1F752D0AD
:100040006EC0DECF92B989B988E18AB98EE083B9F2
:10005000089583E085BF80E48BBF789408955D9B0D
:10006000FECF8CB908955F9BFECF8CB108951F928F
:100070000F920FB60F9211248F939F93AF93BF935C
:10008000839B14C08091600090916100A0916200F8
:10009000B09163000197A109B1098093600090932A
:1000A0006100A0936200B093630013C08091600070
:1000B00090916100A0916200B09163000196A11D32
:1000C000B11D8093600090936100A0936200B09393
:1000D0006300BF91AF919F918F910F900FBE0F90D2
:1000E0001F90189511BA8FEF82BB87BB18BA83E3B4
:1000F00090E0A8DFAEDF04E610E0B5DF982F907C3B
:10010000903CD9F785FF03C08F7188BBF6CFC0E65E
:10011000D0E08991A4DFC017D107D9F7EECFF894CA
:02012000FFCF0F
:00000001FF
