:020000040000FA
:100000000C9464000C948C000C948C000C9451099A
:100010000C9451090C9451090C948C000C942D08EB
:100020000C948C000C948C000C948C000C948C0020
:100030000C948C000C948C000C948C000C948C0010
:100040000C9407090C948C000C94D5080C94AF0800
:100050000C948C000C948C000C948C000C948C00F0
:100060000C948C000C948C000000000024002700ED
:100070002A0000000008000201000003040700003D
:1000800000000000000002000000002300260029FC
:100090000000000000250028002B000404040404D4
:1000A0000404040202020202020303030303030125
:1000B00002040810204080010204081020010204FC
:1000C00008102000C909FC1211241FBECFEFD8E090
:1000D000DEBFCDBF24E0A4E4B2E001C01D92AE318A
:1000E000B207E1F712E0A0E0B1E0E8E9F1E302C015
:1000F00005900D92A434B107D9F710E0C3E6D0E023
:1001000004C02197FE010E941816C236D107C9F714
:100110000E94040A0C94BF180C940000AF92BF9286
:10012000CF92DF92EF92FF920F931F93CF93DF93C3
:100130006C017B018B01040F151FEB015E01AE18F2
:10014000BF08C017D10759F06991D601ED91FC9114
:100150000190F081E02DC6010995892B79F7C50141
:10016000DF91CF911F910F91FF90EF90DF90CF9093
:10017000BF90AF900895FC01538D448D252F30E042
:10018000842F90E0821B930B541710F0CF960895A4
:1001900001970895FC01918D828D981761F0A28DD1
:1001A000AE0FBF2FB11D5D968C91928D9F5F9F7397
:1001B000928F90E008958FEF9FEF0895FC01918D4D
:1001C000828D981731F0828DE80FF11D858D90E0BA
:1001D00008958FEF9FEF0895FC01918D228D892F57
:1001E00090E0805C9F4F821B91098F73992708953F
:1001F00084E293E00E94EC0021E0892B09F420E0E6
:10020000822F089580E090E0892B29F00E94F80069
:1002100081110C9400000895FC01A48DA80FB92F42
:10022000B11DA35ABF4F2C91848D90E001968F731E
:100230009927848FA689B7892C93A089B1898C913D
:10024000837080648C93938D848D981306C002888C
:10025000F389E02D80818F7D80830895EF92FF9256
:100260000F931F93CF93DF93EC0181E0888F9B8DD9
:100270008C8D98131AC0E889F989808185FF15C093
:100280009FB7F894EE89FF896083E889F9898081B6
:100290008370806480839FBF81E090E0DF91CF9185
:1002A0001F910F91FF90EF900895F62E0B8D10E0A7
:1002B0000F5F1F4F0F731127E02E8C8D8E110CC016
:1002C0000FB607FCFACFE889F989808185FFF5CF61
:1002D000CE010E940C01F1CFEB8DEC0FFD2FF11D33
:1002E000E35AFF4FF0829FB7F8940B8FEA89FB899E
:1002F00080818062CFCFCF93DF93EC01888D8823FC
:10030000B9F0AA89BB89E889F9898C9185FD03C078
:10031000808186FD0DC00FB607FCF7CF8C9185FF5D
:10032000F2CF808185FFEDCFCE010E940C01E9CF95
:10033000DF91CF910895833081F028F4813099F0D6
:100340008230A9F008958730A9F08830C9F0843050
:10035000B1F4809180008F7D03C0809180008F7701
:1003600080938000089584B58F7784BD089584B507
:100370008F7DFBCF8091B0008F778093B000089580
:100380008091B0008F7DF9CF1F93CF93DF93282FFB
:1003900030E0F901EE58FF4F8491F901E155FF4F2C
:1003A000D491F901E556FF4FC491CC23A9F0162F43
:1003B00081110E949B01EC2FF0E0EE0FFF1FEF5622
:1003C000FF4FA591B4918FB7F894EC91111108C02B
:1003D000D095DE23DC938FBFDF91CF911F910895DD
:1003E000DE2BF8CFCF93DF9390E0FC01E155FF4F78
:1003F000249185569F4FFC0184918823C9F090E099
:10040000880F991FFC01E859FF4FA591B491FC0199
:10041000EF56FF4FC591D49161110DC09FB7F8946D
:100420008C91209582238C938881282328839FBFD9
:10043000DF91CF910895623051F49FB7F8943C91C9
:10044000822F809583238C93E8812E2BEFCF8FB75B
:10045000F894EC912E2B2C938FBFEACF1F93CF9360
:10046000DF93EC01162F1B821A8288EE93E0A0E046
:10047000B0E08C839D83AE83BF8380E991E0998354
:1004800088831F8A1E8A198E188E1B8E1A8E1D8EC7
:100490001C8E6E8D6E7F6D7F6E8F6695617081E0B4
:1004A000682784E00E94C40161E084E00E94F201B8
:1004B000E3EBF0E0E491E88BEFE9F0E0E491F0E0C9
:1004C000EE0FFF1FEF56FF4F859194919A8B898B0A
:1004D00060E0812F0E94F2018E8D81FD04C061E0F9
:1004E000812F0E94C4011C87812F90E0FC01E155FF
:1004F000FF4FE491ED87FC01E556FF4FE491F0E0FA
:10050000EE0FFF1FE957FF4F859194919F878E87CC
:10051000DF91CF911F9108958F929F92AF92BF92DA
:10052000CF92DF92EF92FF920F931F93CF938C01A4
:1005300080910F01833079F08F3F09F46BC0CF9128
:100540001F910F91FF90EF90DF90CF90BF90AF90F1
:100550009F908F900895E6E8F0E0C491C7FDEFCF3B
:1005600061E083E00E94F2014801B12CA12CCC2370
:10057000E9F0980150E040E0C23009F0BAC048010B
:100580005A0160E970ED83E090E00E94E515690191
:100590007A0181E0C81AD108E108F1088FEFC81686
:1005A000D104E104F10409F00CF4DCC068E478EE55
:1005B00081E090E0A50194010E94E51569017A01AE
:1005C00081E0C81AD108E108F108CC2309F4CCC0B5
:1005D000C23009F01BC18FEFC816D104E104F10449
:1005E00009F00CF41BC164E274EF80E090E0A50117
:1005F00094010E94E51569017A0181E0C81AD108C9
:10060000E108F10885E09091B100987F892B8093F3
:10061000B100C6C083E080930F01E6E8F0E0C4912A
:10062000CF3F09F48CCFC13021F150F0C23009F432
:100630003EC0C7FD84CF61E083E00E94F20199CF04
:1006400014BC15BC84B5826084BD85B5816085BD50
:10065000EEE9F0E0E491F0E0EE0FFF1FEF56FF4F00
:1006600085919491E2EBF0E0E491E0931703C0E010
:1006700077CF109280001092810080918100886075
:100680008093810080918100816080938100EEE9F8
:10069000F0E0E491F0E0EE0FFF1FEF56FF4F859181
:1006A0009491E2EBF0E0E491E093160359CF1092BD
:1006B000B0001092B1008091B00082608093B000D1
:1006C0008091B10081608093B100EEE9F0E0E491A7
:1006D000F0E0EE0FFF1FEF56FF4F8591949190933E
:1006E000150380931403E2EBF0E0E491E09313032D
:1006F00037CF60E072E18AE790E00E94E51569017A
:100700007A0181E0C81AD108E108F108C13009F086
:1007100047C080918100887F81608093810040C0C4
:10072000D0928900C092880020931C0330931D034F
:1007300040931E0350931F0380916F00826080934B
:100740006F00FDCEC092B3002093180330931903BD
:1007500040931A0350931B03809170008260809332
:100760007000EDCE83E04FCF93E08FEFC816D10439
:10077000E104F10489F084F062E17AE780E090E03E
:10078000A50194010E94E51569017A0181E0C81A6A
:10079000D108E108F10894E085B5887F892B85BDF3
:1007A0009801220F331FA4EFB1E00E94861428EEB7
:1007B00033E040E050E00E94C315C13009F4B0CFEF
:1007C000C23009F4BFCFC111BACEC7BC20932003F9
:1007D00030932103409322035093230380916E00B2
:1007E000826080936E00ABCE62E17AE780E090E0B9
:1007F000A50194010E94E51569017A0181E0C81AFA
:10080000D108E108F108C1E086E0FDCE8FEFC816FF
:10081000D104E104F10409F03CF7C1E084E0F3CE37
:100820003FB7F8948091990290919A02A0919B020F
:10083000B0919C0226B5A89B05C02F3F19F00196E8
:10084000A11DB11D3FBFBA2FA92F982F8827BC012A
:10085000CD01620F711D811D911D42E0660F771F52
:10086000881F991F4A95D1F70895CF92DF92EF9292
:10087000FF920E9410046B017C010E9410046C190D
:100880007D098E099F09683E734081059105A8F393
:10089000FF90EF90DF90CF9008952FB7F89460917C
:1008A00095027091960280919702909198022FBFC5
:1008B000089520911103309112032817390771F41C
:1008C00090910F0380911003981741F0E0910F036E
:1008D000F0E0EC5AFD4F808190E008958FEF9FEF9C
:1008E00008950895EF92FF920F931F93CF93DF9394
:1008F000DC015C96ED90FC905D97E114F10479F4D5
:1009000081E090E013969C938E93129790E080E0A4
:10091000DF91CF911F910F91FF90EF900895519625
:10092000ED91FC91529750968C915097982F9095FD
:100930000FB75E962C915E97122F127021FD609575
:10094000F8942081112319F1282B2083E7012197A6
:10095000F1F728E0462F50E0308160FF1AC0382BB5
:100960003083E7012197F1F7BA017595679521501A
:1009700089F7112381F08081892380830FBF5C96E2
:100980008D919C910197F1F781E090E0C1CF2923EF
:10099000DCCF3923E5CF9081892BEFCF2091110354
:1009A000309112032817390771F4809110032091B8
:1009B0000F0390E0805C9F4F821B910960E470E020
:1009C0000E94AF15089590E080E0089520911103F2
:1009D0003091120328173907B9F490910F038091D1
:1009E0001003981789F0E0910F03F0E0EC5AFD4FE7
:1009F000808120910F0330E02F5F3F4F2F7333270B
:100A000020930F0390E008958FEF9FEF0895E091FA
:100A10001103F0911203E817F90769F4A389B48967
:100A20009C918589809589238C9310921203109252
:100A3000110381E0089580E00895CF93DF93EC01E6
:100A40001B8E1A8E198E188E1F8A1E8A8DE991E0D0
:100A50009D8F8C8F8C858631E0F52DEB30E03F8BC0
:100A60002E8B2BE931E0398F288F2CE231E03B8F40
:100A70002A8F90916800883008F44EC021E08E30B3
:100A800008F420E081E001C0880F2A95EAF7892B5D
:100A9000809368009C852DE630E0983050F02BE67E
:100AA00030E09E3030F02CE630E0963110F030E04F
:100AB00020E03C8B2B8B292F30E0983078F581E0BB
:100AC00001C0880F9A95EAF78D8B8C8D9D8D0197CB
:100AD000F1F78A8D9B8D892BE1F080911103909124
:100AE0001203C817D907A9F0009711F00E94070553
:100AF0008E8D8E7F8E8F1092100310920F03D093E5
:100B00001203C0931103EB89FC8980819D89892B95
:100B10008083DF91CF91089584E0B9CF9E3040F477
:100B20002850310981E001C0880F2A95EAF7CCCF1F
:100B30002E503109F7CF90E080E0089521E030E0B9
:100B400001C0220F6A95EAF78130E1F0823099F115
:100B500080910201442399F0282B209302018FEF0A
:100B600093E00E941D05609102018FEF93E00E94C7
:100B700072040E9435048FEF93E00C9407052095D2
:100B80002823EBCF80910101442391F0282B20935F
:100B9000010180EE93E00E941D056091010180EE4D
:100BA00093E00E9472040E94350480EE93E0E5CF4A
:100BB00020952823ECCF80910001442391F0282B2D
:100BC0002093000181EC93E00E941D0560910001DB
:100BD00081EC93E00E9472040E94350481EC93E062
:100BE000CCCF20952823ECCF9F92AF92BF92CF928B
:100BF000DF92EF92FF920F931F93CF93DF9300D07A
:100C0000CDB7DEB769834A83880F991F10924402DB
:100C10001092450210924602109247022981FC016F
:100C2000EC5BFD4F21838A818083D0909D0260E040
:100C30008D2D0E94C40108E412E034E4A32E32E0BA
:100C4000B32EF801E2908F01C0909F029090A10214
:100C500088E0F82E6E2D661F6627661F892D0E947C
:100C6000C401EE0C61E08C2D0E94C40160E08C2D6B
:100C70000E94C401FA94F110EDCFA016B10609F755
:100C800061E08D2D0F900F90DF91CF911F910F910B
:100C9000FF90EF90DF90CF90BF90AF909F900C941B
:100CA000C401FC0101900020E9F73197AF01481B16
:100CB000590BBC0184E293E00C948E00CF93DF9338
:100CC0000E945106EC0180EB91E00E9451068C0FCE
:100CD0009D1FDF91CF9108958F929F92AF92BF9207
:100CE000CF92DF92EF92FF920F931F93CF93DF93F8
:100CF000CDB7DEB7A1970FB6F894DEBF0FBECDBF5C
:100D00006B017C01F7FE47C06DE284E293E00E9434
:100D10002E018C0122273327A9012C193D094E09E8
:100D20005F0919A2CE0181967C019AE0892E912C4F
:100D3000A12CB12CCA01B901A50194010E94C315CF
:100D4000605DF70162937F01211531054105510571
:100D500089F790E080E0309719F0CF010E945106AA
:100D6000080F191F80EB91E00E945106800F911F20
:100D7000A1960FB6F894DEBF0FBECDBFDF91CF9125
:100D80001F910F91FF90EF90DF90CF90BF90AF90A9
:100D90009F908F900895AC019B0119A28E010F5D69
:100DA0001F4F8AE0C82ED12CE12CF12CCA01B901C9
:100DB000A70196010E94C315605DF80162938F013F
:100DC000211531054105510589F7309729F0CF01EB
:100DD0000E9451068C01C6CF10E000E0C3CF9F9265
:100DE000AF92BF92CF92DF92EF92FF920F931F9339
:100DF000CF93DF93CDB7DEB768970FB6F894DEBF19
:100E00000FBECDBF982E1A8A198AFE01739686E00E
:100E1000DF011D928A95E9F7FB0101900020E9F7B7
:100E2000CF010197861B970B8930910510F088E060
:100E300090E0DB0110E000E021E030E0AD01461B76
:100E4000570B481759072CF54D914E3269F4F801AC
:100E50003197EE0FFF1F41E050E04C0F5D1FE40F94
:100E6000F51F31832083EACFE1E1F0E0EC0FFD1FB5
:100E7000E00FF11F4083F801EE0FFF1F41E050E04B
:100E80004C0F5D1FE40FF51F118210820F5F1F4F83
:100E9000D5CF0530110514F004E010E0CE01019625
:100EA0006C015E0191E1A90EB11CF12CE12CE01660
:100EB000F1060CF03FC0D601ED91FD916D01D50119
:100EC0002D915D018DED820F70E060E08A3018F4A5
:100ED000235F61E070E0A0E1B1E090E080E03C9150
:100EE000332311F1129632131DC0880F991FDC01B4
:100EF000A05FBE4F11964C91672B09F04068EF2B15
:100F000009F04068B1E09B1689F0E2E0B70181E0AA
:100F10009E1280E06F5F90E00E94F405FFEFEF1AF1
:100F2000FF0AC5CF0196DBCF40E0E9CFB7016C5F88
:100F30007F4FEFCF68960FB6F894DEBF0FBECDBFE0
:100F4000DF91CF911F910F91FF90EF90DF90CF90A5
:100F5000BF90AF909F9008959F92AF92BF92CF9213
:100F6000DF92EF92FF920F931F93CF93DF935C0179
:100F70007B018B01D0E0C0E0F80191908F01650109
:100F8000CC0EDD1EC6010E943914981621F0692D81
:100F9000C6010E9441142196C430D10569F7C701EA
:100FA000DF91CF911F910F91FF90EF90DF90CF9045
:100FB000BF90AF909F900895AF92BF92CF92DF9273
:100FC000EF92FF920F931F93CF93DF9300D000D047
:100FD0001F92CDB7DEB7B22EA32E7F936F9383EB14
:100FE000C82E81E0D82EDF92CF928E010F5F1F4F67
:100FF0001F930F930E941E16B80180E00E94EF0617
:10100000AF92BF92DF92CF921F930F930E941E1652
:10101000B80181E00E94EF06FF92EF92DF92CF923B
:101020001F930F930E941E16B80182E00E94EF06E4
:101030000FB6F894DEBF0FBECDBF0F900F900F908C
:101040000F900F90DF91CF911F910F91FF90EF9034
:10105000DF90CF90BF90AF9008951F920F920FB680
:101060000F9211242F933F934F935F936F937F932E
:101070008F939F93AF93BF93EF93FF938091180348
:1010800090911903A0911A03B0911B03892B8A2B0D
:101090008B2BD1F190911303E0911403F091150380
:1010A0008081892780838091180390911903A091F2
:1010B0001A03B0911B03181619061A061B069CF496
:1010C0008091180390911903A0911A03B0911B030A
:1010D0000197A109B1098093180390931903A09374
:1010E0001A03B0931B03FF91EF91BF91AF919F91B2
:1010F0008F917F916F915F914F913F912F910F90C1
:101100000FBE0F901F90189580910F01E6E8F0E058
:10111000E4919FEF90930F01E13051F030F0E23015
:1011200069F060E00E94C401DECF10926E00F9CF3A
:1011300090916F009D7F90936F00F3CF909170001E
:101140009D7F9093700091E09093B0009091B100DA
:10115000987F94609093B1001092B300E2CF1F92F9
:101160000F920FB60F9211242F933F934F935F93DB
:101170006F937F938F939F93AF93BF93EF93FF935F
:1011800084E293E00E940C01FF91EF91BF91AF9137
:101190009F918F917F916F915F914F913F912F918F
:1011A0000F900FBE0F901F9018951F920F920FB6C1
:1011B0000F9211242F938F939F93EF93FF93E091BE
:1011C0003403F09135038081E0913A03F0913B03C1
:1011D00082FD1BC0908180913D038F5F8F732091B2
:1011E0003E03821741F0E0913D03F0E0EC5DFC4FDF
:1011F000958F80933D03FF91EF919F918F912F9158
:101200000F900FBE0F901F9018958081F4CF1F9202
:101210000F920FB60F9211242F933F938F939F93AA
:10122000AF93BF938091950290919602A0919702FF
:10123000B09198023091940223E0230F2D3758F596
:101240000196A11DB11D2093940280939502909365
:101250009602A0939702B093980280919902909180
:101260009A02A0919B02B0919C020196A11DB11D12
:101270008093990290939A02A0939B02B0939C0250
:10128000BF91AF919F918F913F912F910F900FBE82
:101290000F901F90189526E8230F0296A11DB11DEF
:1012A000D2CF1F920F920FB60F9211242F933F931C
:1012B0004F935F936F937F938F939F93AF93BF935E
:1012C000EF93FF93E0911103F0911203309749F0EF
:1012D000A685B7858585968D91FF14C09C9189233D
:1012E000A1F4FF91EF91BF91AF919F918F917F9169
:1012F0006F915F914F913F912F910F900FBE0F9083
:101300001F9018959C91892361F7A389B4899C91BA
:101310008589809589238C93868997890197F1F730
:10132000608D718DA685B785558538E020E0CB01AD
:101330000197F1F7822F90E095958795282F4C9192
:10134000452309F02068315091F7868D81FD209565
:101350008091100390E001968F73992730910F03CD
:10136000381799F0A0911003B0E0AC5ABD4F2C9300
:1013700080931003828D938D0197F1F7A389B4892F
:101380008C919589892B8C93ACCF868D8160868FCB
:10139000F1CFE4E2F3E01382128288EE93E0A0E062
:1013A000B0E084839583A683B78382EA91E091833A
:1013B000808385EC90E09587848784EC90E0978724
:1013C000868780EC90E0918B808B81EC90E0938B12
:1013D000828B82EC90E0958B848B86EC90E0978BEF
:1013E000868B118E128E138E148E65E08FEF93E034
:1013F0000E942E0266E080EE93E00E942E0267E0DB
:1014000081EC93E00C942E02CF93DF93CDB7DEB73F
:101410002A970FB6F894DEBF0FBECDBF789484B57F
:10142000826084BD84B5816084BD85B5826085BDE0
:1014300085B5816085BD80916E00816080936E006E
:101440001092810080918100826080938100809160
:101450008100816080938100809180008160809311
:1014600080008091B10084608093B1008091B000D1
:1014700081608093B00080917A00846080937A00CC
:1014800080917A00826080937A0080917A008160F6
:1014900080937A0080917A00806880937A0010921D
:1014A000C1008CE090E09093A2028093A1028AE0B8
:1014B00090E09093A00280939F028BE090E0909345
:1014C0009E0280939D0261E08CE00E94F20161E047
:1014D0008AE00E94F20161E08BE00E94F20161E08B
:1014E0008BE00E94C40110E000E040E06FE0C80122
:1014F0000E94F40547E06BE0C8010E94F40540E05B
:1015000069E0C8010E94F405FF24F39440E06F2DC8
:10151000C8010E94F405F39429E0F212F7CF40E0ED
:101520006CE0C8010E94F4050130110509F0D7C034
:1015300041E06CE090E080E00E94F40541E06CE066
:1015400081E090E00E94F40548E06AE090E080E0ED
:101550000E94F40548E06AE081E090E00E94F40512
:1015600082E390E0A0E0B0E0809303049093040451
:10157000A0930504B09306048093E4039093E503DD
:10158000A093E603B093E7038093C5039093C6034B
:10159000A093C703B093C803ACE8AA2EA1E0BA2E6B
:1015A000BCE7EB2EB1E0FB2E04E811E0D801DC90A3
:1015B0000E5F1F4F61E08D2D0E94F201F7018081C7
:1015C000F2E0EF0EF11C62E00E94F20161E08D2D6D
:1015D0000E94C401A016B10649F7E0913403F091CE
:1015E000350382E08083E0913003F0913103108273
:1015F000E0913203F09133038FEC808310923C032F
:10160000E0913803F091390386E08083E09136035E
:10161000F0913703808180618083E0913603F091FF
:101620003703808188608083E0913603F09137032F
:10163000808180688083E0913603F0913703808158
:101640008F7D808387EB91E00E945E06FAE0DF2EBB
:10165000CC24C39410920D030E944D040091A30268
:101660001091A4022091A5023091A602601B710B7B
:10167000820B930B643671058105910508F42BC12B
:101680008FEF93E00E941D0560E48FEF93E00E94CE
:1016900072040E944D044B015C018E010F5F1F4FCD
:1016A0007801712C24E07216F9F00E944D0468193B
:1016B00079098A099B09653671058105910590F4C0
:1016C0008FEF93E00E94CE04892B61F38FEF93E0BC
:1016D0000E94E604D7018D937D017394E3CF01E06E
:1016E00010E003CFE5E07E2E8FEF93E00E94070528
:1016F00089809A80AB80BC80B4E07B124CC0809122
:10170000B3029091B402A091B502B091B602A501C6
:101710009401281B390B4A0B5B0BDA01C90180933A
:10172000F7029093F802A093F902B093FA0282EDC7
:1017300091E00E945106C501B4010E946C0680EE42
:1017400093E00E941D0560E880EE93E00E94720421
:101750000E944D044B015C017801712C34E073163A
:1017600019F10E944D04681979098A099B096536A7
:10177000710581059105B0F480EE93E00E94CE04DE
:10178000892B61F380EE93E00E94E604D7018D93EC
:101790007D017394E3CFC0920D0388EC91E00E9429
:1017A0005E06C5CF75E0772E80EE93E00E940705B8
:1017B00089809A80AB80BC80B4E07B124BC0809162
:1017C000AF029091B002A091B102B091B202A50116
:1017D0009401281B390B4A0B5B0BDA01C90180937A
:1017E000F3029093F402A093F502B093F60280EE18
:1017F00091E00E945106C501B4010E946C0681EC83
:1018000093E00E941D0560EC81EC93E00E9472045D
:101810000E944D044B015C01F12C34E0F31631F1D0
:101820000E944D04681979098A099B09653671057A
:1018300081059105C8F481EC93E00E94CE04892BC8
:1018400061F381EC93E00E94E604D8018D938D0151
:10185000F394E3CF80910D038F5F80930D0386EDAA
:1018600091E00E945E06C3CF65E0F62E81EC93E026
:101870000E94070589809A80AB80BC80B4E0FB128F
:101880007EC28091AB029091AC02A091AD02B0916A
:10189000AE02A5019401281B390B4A0B5B0BDA0140
:1018A000C9018093EF029093F002A093F102B093EC
:1018B000F2028EEE91E00E945106C501B4010E9431
:1018C0006C060E944D046093A3027093A40280935F
:1018D000A5029093A6020E944D040091A7021091C8
:1018E000A8022091A9023091AA02601B710B820B01
:1018F000930B6C3271408105910508F46EC08091A4
:10190000CA02882309F40FC38091C702823009F408
:101910004AC2833009F4A8C2813009F054C06091F2
:1019200003037091040380910503909106030E94C4
:101930001C132DEC3CEC4CE45DE30E947B134B014B
:101940005C0120E030E0A9010E94AA1520E030E00F
:1019500040E05FE387FD1DC2C501B4010E949614FB
:101960000E9474154B015C016091FF0270910003AD
:1019700080910103909102030E941C132DEC3CEC1A
:101980004CE45DE30E947B132B013C0120E030E03E
:10199000A9010E94AA1520E030E040E05FE387FD46
:1019A000FDC1C301B2010E9496140E9474159B01EF
:1019B000AC016091C8027091C90290E080E085019D
:1019C00074010E94DC070E944D046093A70270938B
:1019D000A8028093A9029093AA020E944D0400914C
:1019E000EB021091EC022091ED023091EE02601BAF
:1019F000710B820B930B6A3071058105910508F418
:101A000092C04BEC642E42E0742EA7EBB2E0BE8392
:101A1000AD8354E8A52E51E0B52E312CF50180811F
:101A2000F2E0AF0EB11C60E00E94C401ED80FE80C8
:101A300043012CE731E03A87298710E0A985BA8570
:101A40002D913D91BA87A9873327F901EE58FF4FB1
:101A50008491F901E155FF4F2490F901E556FF4FBC
:101A60005490552009F4FDC381110E949B01E52D7E
:101A7000F0E0EE0FFF1FE957FF4FA591B491EC91F5
:101A8000D4018D919C912E2209F4EBC30297C0974B
:101A9000A0F4B2E03B1609F49CC3E3E03E1609F45F
:101AA000CEC3F1E03F1609F4D6C2113009F4B3C237
:101AB00008F49DC2123009F4BEC2F40111821082F2
:101AC000D7011C921F5F32E0830E911C4FEFE41A86
:101AD000F40A143009F0B2CF61E0F5013297808149
:101AE0000E94C401339458E0650E711C8D819E8163
:101AF00004969E838D8394E0391290CF8091C80222
:101B00009091C9028031974220F01092C902109240
:101B1000C8020E944D046093EB027093EC02809324
:101B2000ED029093EE0210920C0340910B01509144
:101B30000C0160910D0170910E014B5F5F4F6F4F73
:101B40007F4F81E00091F7021091F8022091F90295
:101B50003091FA0204171507260737070CF480E0C6
:101B600040910701509108016091090170910A01AB
:101B70004B5F5F4F6F4F7F4F91E00091F3021091E9
:101B8000F4022091F5023091F6020417150726079A
:101B900037070CF490E0892BC9F4809103019091F0
:101BA0000401A0910501B09106010596A11DB11D8A
:101BB0004091EF025091F0026091F1027091F202B7
:101BC000481759076A077B070CF45FC0BFEFB09353
:101BD0000C0386E192E00E94510680910B019091E6
:101BE0000C01A0910D01B0910E010596A11DB11D32
:101BF0004091F7025091F8026091F9027091FA0257
:101C0000481759076A077B0724F08DE192E00E948C
:101C100051068091070190910801A0910901B091AE
:101C20000A010596A11DB11D4091F3025091F402E5
:101C30006091F5027091F602481759076A077B0711
:101C400024F085E292E00E94510680910301909178
:101C50000401A0910501B09106010596A11DB11DD9
:101C60004091EF025091F0026091F1027091F20206
:101C7000481759076A077B0724F08DE292E00E941B
:101C8000510685E392E00E945E060E944D04009199
:101C900008031091090320910A0330910B03601B84
:101CA000710B820B930B6436710581059105C8F1A8
:101CB00010910E03112309F4D3C31092070340E0DF
:101CC00060E080E00E949E0540E061E080E00E94CC
:101CD0009E0540E060E081E00E949E0540E061E0FA
:101CE00081E00E949E0540E060E082E00E949E0547
:101CF00040E061E082E00E949E0540E063E082E017
:101D00000E949E0540E064E082E00E949E050E94E1
:101D10004D04609308037093090380930A03909322
:101D20000B0310920E0380910D03882331F088EE8F
:101D300093E00E948C02C0920E0380910C038823D2
:101D400049F010910E038EE591E00E948C021F5F16
:101D500010930E0380910E03882321F087E392E015
:101D60000E945E0640E050E0452B09F473CC0E94CF
:101D7000F800882309F46ECC0E9400006BCC80919F
:101D80000D038F5F80930D0384EE91E00E945E0649
:101D900090CDC501B4010E949514E2CDC301B201FA
:101DA0000E94951402CE6091030370910403809108
:101DB0000503909106030E941C132DEC3CEC4CE4AF
:101DC0005DE30E947B134B015C0120E030E0A90140
:101DD0000E94AA1520E030E040E05FE387FD3AC0B2
:101DE000C501B4010E9496140E9474156D837E8310
:101DF0008F8398878090C8029090C902B12CA12C43
:101E00006091FB027091FC028091FD029091FE02B4
:101E10000E941C132DEC3CEC4CE45DE30E947B1310
:101E20002B013C0120E030E0A9010E94AA1520E02E
:101E300030E040E05FE387FD12C0C301B2010E94C1
:101E400096140E947415ED80FE800F811885A501FF
:101E50009401B7CDC501B4010E949514C5CFC3014B
:101E6000B2010E949514EDCF8090C8029090C902F3
:101E7000C401B0E0A0E08D839E83AF83B8876091FA
:101E8000FF027091000380910103909102030E9470
:101E90001C132DEC3CEC4CE45DE30E947B132B0106
:101EA0003C0120E030E0A9010E94AA1520E030E0CA
:101EB00040E05FE387FD32C0C301B2010E94961487
:101EC0000E9474152B013C016091FB027091FC0291
:101ED0008091FD029091FE020E941C132DEC3CECBF
:101EE0004CE45DE30E947B134B015C0120E030E099
:101EF000A9010E94AA1520E030E040E05FE387FDE1
:101F000071C0C501B4010E9496140E947415ED8041
:101F1000FE800F811885A301920153CDC301B20148
:101F20000E949514CDCF6091EF027091F0028091E4
:101F3000F1029091F2020E941C132DEC3CEC4CE457
:101F40005DE30E947B134B015C0120E030E0A901BE
:101F50000E94AA1520E030E040E05FE387FD38C032
:101F6000C501B4010E9496140E9474156D837E838E
:101F70008F8398876091F3027091F4028091F5024B
:101F80009091F6020E941C132DEC3CEC4CE45DE3B6
:101F90000E947B134B015C0120E030E0A9010E940C
:101FA000AA1520E030E040E05FE387FD16C0C501E0
:101FB000B4010E9496140E9474152B013C0160919B
:101FC000F7027091F8028091F9029091FA0284CFA1
:101FD000C501B4010E949514C7CFC501B4010E9488
:101FE0009514E9CFC501B4010E9495148ECF80915C
:101FF000CA02882309F461CD2091C8023091C90238
:10200000D29EC001D39E900D112401969093C902D7
:102010008093C80252CD8091CA02882309F44DCD25
:102020002091C8023091C902D29EC001D39E900D6A
:1020300011240296EBCF8091CA02882309F43DCD8A
:102040002091C8023091C902D29EC001D39E900D4A
:1020500011240396DBCF123011F1133081F18091FE
:10206000CA02113071F0882309F427CD2091C802EB
:102070003091C902D29EC001D39E900D11240496C6
:10208000C5CF882309F419CD2091C8023091C90227
:10209000D29EC001D39E900D11240596B7CF80919A
:1020A000CA02882309F409CD2091C8023091C902DF
:1020B000D29EC001D39E900D11240696A7CF009109
:1020C000C702002309F449C0202F2150330BC90156
:1020D000880F991F880F991FAC0145505D4F2A0149
:1020E0006091C8027091C90290E080E00E941A13CA
:1020F0002DEC3CEC4CE45DE30E9402150E9474154B
:10210000D2016D937D938D939C931397033010F5BB
:1021100055245394500E5092C702E091C702E150EB
:10212000FF0BEE0FFF1FEE0FFF1FE550FD4F60810D
:102130007181828193810E941C132DEC3CEC4CE454
:102140005DE30E947B130E947B157093C90260932C
:10215000C802B3CC3092C702E0CF80910B019091BE
:102160000C01A0910D01B0910E010597A109B109D3
:102170008093FB029093FC02A093FD02B093FE02B9
:102180008091070190910801A0910901B0910A0185
:102190000597A109B1098093FF0290930003A093D2
:1021A0000103B09302038091030190910401A09177
:1021B0000501B09106010597A109B10980930303B8
:1021C00090930403A0930503B09306033092070392
:1021D00074CC113021F198F0123009F06ECC80915E
:1021E000CA02882309F469CC2091C8023091C9023F
:1021F000D29EC001D39E900D1124099607CF8091E5
:10220000CA02882309F459CC2091C8023091C9022E
:10221000D29EC001D39E900D11240796F7CE8091D7
:10222000CA02882309F449CC2091C8023091C9021E
:10223000D29EC001D39E900D11240896E7CE113096
:1022400009F03BCC8091CA02882309F436CC209156
:10225000C8023091C902D29EC001D39E900D1124B4
:10226000D5CEF40180819181019691838083C397BB
:1022700008F428CCD7018C91811124CCE1E0EC93B7
:102280003E1609F44EC0F3E03F121CCC113009F4A5
:10229000B6C0123009F016CC8091F7029091F80286
:1022A000A091F902B091FA0280930B0190930C0176
:1022B000A0930D01B0930E018091F3029091F4026E
:1022C000A091F502B091F602809307019093080166
:1022D000A0930901B0930A018091EF029091F0025E
:1022E000A091F102B091F202809303019093040156
:1022F000A0930501B09306016BE071E088E090E0E7
:102300000E94AC0767E071E084E090E00E94AC07B7
:1023100063E071E080E090E00E94AC078DE092E025
:102320006BC0133009F0CECB8091C702882309F42B
:102330005DC0823049F1833009F43FC08130C1F47F
:102340006091C8027091C90290E080E00E941A1367
:102350002DEC3CEC4CE45DE30E9402150E947415E8
:102360006093FB027093FC028093FD029093FE0247
:102370001092C7021092CA0282EF91E00E945E069C
:1023800021E0209307039ECB6091C8027091C9029F
:1023900090E080E00E941A132DEC3CEC4CE45DE3ED
:1023A0000E9402150E9474156093FF02709300034F
:1023B0008093010390930203DBCF6091C802709178
:1023C000C90290E080E00E941A132DEC3CEC4CE432
:1023D0005DE30E9402150E947415609303037093DD
:1023E00004038093050390930603C2CF3092C70283
:1023F0003092CA0280E092E00E945E0663CB809138
:10240000F7029091F802A091F902B091FA0280933C
:10241000B3029093B402A093B502B093B602809138
:10242000F3029091F402A091F502B091F60280932C
:10243000AF029093B002A093B102B093B202809128
:10244000EF029091F002A091F102B091F20280931C
:10245000AB029093AC02A093AD02B093AE0232CB2C
:1024600080910703882309F452CC8091FB0290915C
:10247000FC02A091FD02B091FE024091F702509142
:10248000F8026091F9027091FA024C015D01E5E0F9
:102490008E1A9108A108B108481559056A057B05EF
:1024A0000CF055C041E060E080E00E949E0540E0F5
:1024B00061E080E00E949E058091FF029091000300
:1024C000A0910103B09102034091F3025091F402F4
:1024D0006091F5027091F6024C015D01F5E08F1AF2
:1024E0009108A108B108481559056A057B050CF04B
:1024F00049C041E060E081E00E949E0540E061E06B
:1025000081E00E949E058091030390910403A091B5
:102510000503B09106034091EF025091F0026091E3
:10252000F1027091F2024C015D0125E0821A9108DE
:10253000A108B108481559056A057B05F4F541E085
:1025400060E082E00E949E0540E061E0DDCB059600
:10255000A11DB11D84179507A607B7073CF440E0FD
:1025600060E080E00E949E0541E0A2CF40E060E094
:1025700080E00E949E0540E061E080E00E949E05B0
:1025800011E09ACF0596A11DB11D84179507A607E6
:10259000B7073CF440E060E081E00E949E0541E026
:1025A000AECF40E060E081E00E949E0540E061E047
:1025B00081E00E949E051F5FA6CF0596A11DB11D5B
:1025C00084179507A607B7073CF440E060E082E077
:1025D0000E949E0541E0B9CF40E060E082E00E94A9
:1025E0009E0540E061E082E00E949E05123009F005
:1025F0008ECB109207038BCBCF93DF93C0E9D1E052
:10260000D093C203C093C10381EC93E00E940705FD
:10261000D093E103C093E00380EE93E00E940705AE
:10262000D0930004C093FF038FEF93E0DF91CF912D
:102630000C940705E89409C097FB3EF490958095AB
:10264000709561957F4F8F4F9F4F9923A9F0F92F78
:1026500096E9BB279395F695879577956795B795F6
:10266000F111F8CFFAF4BB0F11F460FF1BC06F5FDC
:102670007F4F8F4F9F4F16C0882311F096E911C0EE
:10268000772321F09EE8872F762F05C0662371F00F
:1026900096E8862F70E060E02AF09A95660F771F23
:1026A000881FDAF7880F9695879597F90895990FFF
:1026B0000008550FAA0BE0E8FEEF16161706E8070C
:1026C000F907C0F012161306E407F50798F0621B2D
:1026D000730B840B950B39F40A2661F0232B242B02
:1026E000252B21F408950A2609F4A140A6958FEF21
:1026F000811D811D08950E948E130C94FF130E946A
:10270000F11338F00E94F81320F0952311F00C9487
:10271000E8130C94EE1311240C9433140E9410143B
:1027200070F3959FC1F3950F50E0551F629FF00124
:10273000729FBB27F00DB11D639FAA27F00DB11D3D
:10274000AA1F649F6627B00DA11D661F829F2227C6
:10275000B00DA11D621F739FB00DA11D621F839F4D
:10276000A00D611D221F749F3327A00D611D231F23
:10277000849F600D211D822F762F6A2F11249F5771
:1027800050409AF0F1F088234AF0EE0FFF1FBB1F74
:10279000661F771F881F91505040A9F79E3F510533
:1027A00080F00C94E8130C9433145F3FE4F3983EEC
:1027B000D4F3869577956795B795F795E7959F5FDD
:1027C000C1F7FE2B880F911D9695879597F908956F
:1027D00097F99F6780E870E060E008959FEF80ECD4
:1027E000089500240A941616170618060906089577
:1027F00000240A9412161306140605060895092EDD
:102800000394000C11F4882352F0BB0F40F4BF2B4B
:1028100011F460FF04C06F5F7F4F8F4F9F4F08958B
:1028200057FD9058440F551F59F05F3F71F0479581
:10283000880F97FB991F61F09F3F79F08795089566
:10284000121613061406551FF2CF4695F1DF08C085
:10285000161617061806991FF1CF869571056105A2
:1028600008940895E894BB2766277727CB0197F94A
:102870000895F999FECF92BD81BDF89A992780B548
:102880000895262FF999FECF1FBA92BD81BD20BDB4
:102890000FB6F894FA9AF99A0FBE019608952F92FE
:1028A0003F924F925F926F927F928F929F92AF92E0
:1028B000BF92CF92DF92EF92FF920F931F93CF932D
:1028C000DF93CDB7DEB7CA1BDB0B0FB6F894DEBFC4
:1028D0000FBECDBF09942A88398848885F846E84EA
:1028E0007D848C849B84AA84B984C884DF80EE8034
:1028F000FD800C811B81AA81B981CE0FD11D0FB63D
:10290000F894DEBF0FBECDBFED010895A29FB001C8
:10291000B39FC001A39F700D811D1124911DB29F13
:10292000700D811D1124911D08955058BB27AA27B1
:102930000E94AD140C94FF130E94F11338F00E9412
:10294000F81320F039F49F3F19F426F40C94EE1399
:102950000EF4E095E7FB0C94E813E92F0E941014A5
:1029600058F3BA17620773078407950720F079F4C4
:10297000A6F50C9432140EF4E0950B2EBA2FA02D70
:102980000B01B90190010C01CA01A0011124FF271C
:10299000591B99F0593F50F4503E68F11A16F04017
:1029A000A22F232F342F4427585FF3CF4695379516
:1029B0002795A795F0405395C9F77EF41F16BA0BDB
:1029C000620B730B840BBAF09150A1F0FF0FBB1F89
:1029D000661F771F881FC2F70EC0BA0F621F731FD2
:1029E000841F48F4879577956795B795F7959E3F2F
:1029F00008F0B0CF9395880F08F09927EE0F9795C0
:102A0000879508950E9416150C94FF130E94F813E1
:102A100058F00E94F11340F029F45F3F29F00C9424
:102A2000E81351110C9433140C94EE130E941014FB
:102A300068F39923B1F3552391F3951B550BBB27ED
:102A4000AA2762177307840738F09F5F5F4F220F32
:102A5000331F441FAA1FA9F335D00E2E3AF0E0E829
:102A600032D091505040E695001CCAF72BD0FE2F73
:102A700029D0660F771F881FBB1F26173707480707
:102A8000AB07B0E809F0BB0B802DBF01FF279358BF
:102A90005F4F3AF09E3F510578F00C94E8130C9488
:102AA00033145F3FE4F3983ED4F3869577956795AA
:102AB000B795F7959F5FC9F7880F911D96958795F4
:102AC00097F90895E1E0660F771F881FBB1F621713
:102AD00073078407BA0720F0621B730B840BBA0BD1
:102AE000EE1F88F7E09508950E947B156894B11158
:102AF0000C94331408950E94181488F09F5798F08E
:102B0000B92F9927B751B0F0E1F0660F771F881FF2
:102B1000991F1AF0BA95C9F714C0B13091F00E940C
:102B20003214B1E008950C943214672F782F88275F
:102B3000B85F39F0B93FCCF3869577956795B39533
:102B4000D9F73EF490958095709561957F4F8F4FA2
:102B50009F4F08950E94571308F48FEF089597FB35
:102B6000072E16F4009407D077FD09D00E940416B2
:102B700007FC05D03EF4909581959F4F0895709580
:102B800061957F4F0895A1E21A2EAA1BBB1BFD0180
:102B90000DC0AA1FBB1FEE1FFF1FA217B307E4073C
:102BA000F50720F0A21BB30BE40BF50B661F771F94
:102BB000881F991F1A9469F7609570958095909574
:102BC0009B01AC01BD01CF010895052E97FB1EF4BA
:102BD00000940E94FC1557FD07D00E94C31507FC06
:102BE00003D04EF40C94FC155095409530952195EA
:102BF0003F4F4F4F5F4F0895909580957095619529
:102C00007F4F8F4F9F4F0895AA1BBB1B51E107C0F9
:102C1000AA1FBB1FA617B70710F0A61BB70B881F6C
:102C2000991F5A95A9F780959095BC01CD010895FB
:102C3000EE0FFF1F0590F491E02D0994AEE0B0E097
:102C4000E4E2F6E10C945D140D891E8986E08C8324
:102C50001A8309838FEF9FE79E838D83AE01475EC2
:102C60005F4F6F89788DCE0101960E9441162F81AA
:102C70003885020F131FF80110822E96E4E00C94A1
:102C80007914ABE0B0E0E7E4F6E10C944F147C017A
:102C90003B018A01FC0117821682838181FFC8C132
:102CA000CE0101965C01F7019381F30193FD8591BB
:102CB00093FF81913F01882309F453C1853239F490
:102CC00093FD859193FF81913F01853229F4B701EE
:102CD00090E00E943118E7CF912C212C312CFFE19C
:102CE000F31538F08B3211F190F4803209F1833210
:102CF00029F137FC3CC020ED280F2A3050F536FE74
:102D000020C08AE0989E200D1124922E06C08D329C
:102D100091F0803371F7689430F8F30193FD859159
:102D200093FF81913F018111DACF21C0689431F87E
:102D3000689432F8F2CF689433F8EFCF689434F89F
:102D4000ECCFEAE02E9E200D1124222E689435F857
:102D5000E4CF8E3229F436FC04C1689436F8DDCF16
:102D60008C3619F4689437F8D8CF8836B1F2982F9A
:102D70009F7D95549330E0F08336A1F18337C1F104
:102D8000833509F063C02801F2E04F0E511CF801B1
:102D9000C080D180692D70E036FC02C06FEF7FEFFC
:102DA000C6010E941B184C01689437F882010AC0C2
:102DB0000C5F1F4FFFE3F98388248394912C6501F6
:102DC000E89437F833FE2DC0522C8114910471F52C
:102DD000552009F468CFB70180E290E00E943118D5
:102DE0005A94F6CFF801808189830E5F1F4FE4CF9C
:102DF0002801F2E04F0E511CF801C080D180692DEE
:102E000070E036FC02C06FEF7FEFC6010E9426180B
:102E10004C018201D5CFB70180E290E00E943118C9
:102E20002A942814190409F0B0F7CECFF60137FC24
:102E3000859137FE81916F01B70190E00E943118B2
:102E400051105A94F1E08F1A9108BFCF843619F0CF
:102E5000893609F077C0F80137FE6BC06081718157
:102E6000828193810C5F1F4FF32DFF763F2E97FFDA
:102E700009C090958095709561957F4F8F4F9F4FBA
:102E8000689437F82AE030E0A5010E946118C82E46
:102E9000CA188C2C432C36FE0CC0E89440F8C91498
:102EA00040F434FE05C032FC03C0F32DFE7E4F2EED
:102EB000892C44FE95C0FE01EC0DF11D808180330C
:102EC00009F087C0242D297E422E842D8870582E2B
:102ED00043FC95C040FE8FC09C2C821418F42C0C2F
:102EE000922C981844FE91C0B70180E390E00E94B4
:102EF000311842FE09C088E790E041FE02C088E533
:102F000090E0B7010E943118C91408F48AC0CA942D
:102F1000D12C9FEFC91AD90ACA0CDB1CF601829189
:102F20006F01B70190E00E943118AC14BD04B1F7F5
:102F30004FCF60817181072E000C880B990B0E5FBB
:102F40001F4F92CFD32CE894D4F82AE030E0853795
:102F500039F1232D297FD22E8F3601F148F488359F
:102F6000A9F0F701868197812B96E2E10C946B140E
:102F7000803749F08837A9F7D4FE02C06894D2F8A8
:102F800020E130E00DC06894D4F8F6CF34FE03C0E1
:102F9000822F8660D82E20E132E002C028E030E0A7
:102FA000F801D7FE0FC060817181828193810C5F2F
:102FB0001F4FA5010E946118C82ECA183D2CE89425
:102FC00037F867CF6081718190E080E00E5F1F4F1E
:102FD000F0CF42FC02C0839478CF8394839475CF62
:102FE000842D867809F471CFF6CFB70180E290E0A6
:102FF0000E94311883948214C0F3512C73CF522C49
:103000005818821408F46ECFF8CF842D867809F40E
:103010007BCF8BE241FE80E247FC8DE2B70190E07E
:1030200071CFB70180E390E00E9431189A946CCF81
:103030008FEF9FEF99CFFC01059061507040011018
:10304000D8F7809590958E0F9F1F0895FC016150D1
:10305000704001900110D8F7809590958E0F9F1FBA
:1030600008950F931F93CF93DF93182F092FEB0130
:103070008B8181FD09C01FEF0FEF812F902FDF9112
:10308000CF911F910F91089582FF14C02E813F812F
:103090008C819D81281739073CF4E881F981CF01A3
:1030A00001969983888310838E819F8101969F83E7
:1030B0008E83E3CFE885F985812F0995892BA1F3CC
:1030C000DACFFA01AA27283051F1203181F1E894B2
:1030D0006F936E7F6E5F7F4F8F4F9F4FAF4FB1E00B
:1030E0003ED0B4E03CD0670F781F891F9A1FA11D06
:1030F000680F791F8A1F911DA11D6A0F711D811D07
:10310000911DA11D20D009F468943F912AE0269FCB
:1031100011243019305D3193DEF6CF010895462F2A
:103120004770405D4193B3E00FD0C9F7F6CF462F0B
:103130004F70405D4A3318F0495D31FD4052419374
:1031400002D0A9F7EACFB4E0A69597958795779531
:103150006795BA95C9F700976105710508959B01B8
:10316000AC010A2E06945795479537952795BA9541
:10317000C9F7620F731F841F951FA01D089510E0EB
:10318000C3E6D0E004C0FE010E9418162196C436A2
:10319000D107C9F7F894FFCFE0A0602C0100002C04
:1031A0000100002C010000FF4177427F434E447E26
:1031B000454F4647475E483749304A3C4C0E4E76AD
:1031C0004F7E50675205535B540F553E59275B4E57
:1031D0005D785F086177621F630D643D654F6647E8
:1031E000675E681769106A3C6C0E6E156F7E7067BB
:1031F0007205735B740F751C79272D012000307EDA
:103200003130326D33793433355B365F3770387F28
:10321000397B300010001100120013000800090073
:103220000E000F000000000072048E009B05710468
:10323000CE04E6045904000000002E018E00BB00FD
:103240007B01EC00CA00DE000D0A00253464004C4E
:10325000696E65696B6120697320626567696E00DC
:10326000583A204552522E525800583A2000593AA6
:10327000204552522E525800593A20005A3A2045C1
:1032800052522E5258005A3A2000476F546F5F4DE9
:103290006F6465204F464600476F546F5F4D6F6403
:1032A00065204F4E004B5620534156454400455231
:1032B000525F4B56002C204552525F58002C20453F
:1032C00052525F59002C204552525F5A002E004541
:0C32D00072725F5374617465212121004B
:107E0000112484B714BE81FFF0D085E080938100F7
:107E100082E08093C00088E18093C10086E0809377
:107E2000C20080E18093C4008EE0C9D0259A86E02C
:107E300020E33CEF91E0309385002093840096BBD3
:107E4000B09BFECF1D9AA8958150A9F7CC24DD24C4
:107E500088248394B5E0AB2EA1E19A2EF3E0BF2EE7
:107E6000A2D0813461F49FD0082FAFD0023811F036
:107E7000013811F484E001C083E08DD089C08234E0
:107E800011F484E103C0853419F485E0A6D080C0E4
:107E9000853579F488D0E82EFF2485D0082F10E0AE
:107EA000102F00270E291F29000F111F8ED06801E7
:107EB0006FC0863521F484E090D080E0DECF843638
:107EC00009F040C070D06FD0082F6DD080E0C81688
:107ED00080E7D80618F4F601B7BEE895C0E0D1E017
:107EE00062D089930C17E1F7F0E0CF16F0E7DF06D8
:107EF00018F0F601B7BEE89568D007B600FCFDCFD4
:107F0000A601A0E0B1E02C9130E011968C91119780
:107F100090E0982F8827822B932B1296FA010C0160
:107F200087BEE89511244E5F5F4FF1E0A038BF0790
:107F300051F7F601A7BEE89507B600FCFDCF97BE46
:107F4000E89526C08437B1F42ED02DD0F82E2BD052
:107F50003CD0F601EF2C8F010F5F1F4F84911BD097
:107F6000EA94F801C1F70894C11CD11CFA94CF0C13
:107F7000D11C0EC0853739F428D08EE10CD085E9AC
:107F80000AD08FE07ACF813511F488E018D01DD067
:107F900080E101D065CF982F8091C00085FFFCCF94
:107FA0009093C60008958091C00087FFFCCF809118
:107FB000C00084FD01C0A8958091C6000895E0E648
:107FC000F0E098E1908380830895EDDF803219F02E
:107FD00088E0F5DFFFCF84E1DECF1F93182FE3DFCA
:107FE0001150E9F7F2DF1F91089580E0E8DFEE27F6
:047FF000FF270994CA
:027FFE00040479
:00000001FF
